{
  "contractName": "ConcertNFT",
  "abi": [
    {
      "inputs": [],
      "stateMutability": "nonpayable",
      "type": "constructor"
    },
    {
      "anonymous": false,
      "inputs": [
        {
          "indexed": true,
          "internalType": "address",
          "name": "owner",
          "type": "address"
        },
        {
          "indexed": true,
          "internalType": "address",
          "name": "approved",
          "type": "address"
        },
        {
          "indexed": true,
          "internalType": "uint256",
          "name": "tokenId",
          "type": "uint256"
        }
      ],
      "name": "Approval",
      "type": "event"
    },
    {
      "anonymous": false,
      "inputs": [
        {
          "indexed": true,
          "internalType": "address",
          "name": "owner",
          "type": "address"
        },
        {
          "indexed": true,
          "internalType": "address",
          "name": "operator",
          "type": "address"
        },
        {
          "indexed": false,
          "internalType": "bool",
          "name": "approved",
          "type": "bool"
        }
      ],
      "name": "ApprovalForAll",
      "type": "event"
    },
    {
      "anonymous": false,
      "inputs": [
        {
          "indexed": true,
          "internalType": "uint256",
          "name": "id",
          "type": "uint256"
        },
        {
          "indexed": false,
          "internalType": "string",
          "name": "artist",
          "type": "string"
        },
        {
          "indexed": false,
          "internalType": "string",
          "name": "location",
          "type": "string"
        },
        {
          "indexed": false,
          "internalType": "uint256",
          "name": "date",
          "type": "uint256"
        },
        {
          "indexed": false,
          "internalType": "uint256",
          "name": "price",
          "type": "uint256"
        },
        {
          "indexed": false,
          "internalType": "bool",
          "name": "forSale",
          "type": "bool"
        }
      ],
      "name": "ConcertCreated",
      "type": "event"
    },
    {
      "anonymous": false,
      "inputs": [
        {
          "indexed": true,
          "internalType": "uint256",
          "name": "id",
          "type": "uint256"
        },
        {
          "indexed": false,
          "internalType": "string",
          "name": "artist",
          "type": "string"
        },
        {
          "indexed": false,
          "internalType": "string",
          "name": "location",
          "type": "string"
        },
        {
          "indexed": false,
          "internalType": "uint256",
          "name": "date",
          "type": "uint256"
        },
        {
          "indexed": false,
          "internalType": "uint256",
          "name": "price",
          "type": "uint256"
        },
        {
          "indexed": false,
          "internalType": "bool",
          "name": "forSale",
          "type": "bool"
        }
      ],
      "name": "ConcertUpdated",
      "type": "event"
    },
    {
      "anonymous": false,
      "inputs": [
        {
          "indexed": true,
          "internalType": "address",
          "name": "previousOwner",
          "type": "address"
        },
        {
          "indexed": true,
          "internalType": "address",
          "name": "newOwner",
          "type": "address"
        }
      ],
      "name": "OwnershipTransferred",
      "type": "event"
    },
    {
      "anonymous": false,
      "inputs": [
        {
          "indexed": true,
          "internalType": "address",
          "name": "from",
          "type": "address"
        },
        {
          "indexed": true,
          "internalType": "address",
          "name": "to",
          "type": "address"
        },
        {
          "indexed": true,
          "internalType": "uint256",
          "name": "tokenId",
          "type": "uint256"
        }
      ],
      "name": "Transfer",
      "type": "event"
    },
    {
      "inputs": [],
      "name": "NAME",
      "outputs": [
        {
          "internalType": "string",
          "name": "",
          "type": "string"
        }
      ],
      "stateMutability": "view",
      "type": "function"
    },
    {
      "inputs": [],
      "name": "SYMBOL",
      "outputs": [
        {
          "internalType": "string",
          "name": "",
          "type": "string"
        }
      ],
      "stateMutability": "view",
      "type": "function"
    },
    {
      "inputs": [
        {
          "internalType": "address",
          "name": "to",
          "type": "address"
        },
        {
          "internalType": "uint256",
          "name": "tokenId",
          "type": "uint256"
        }
      ],
      "name": "approve",
      "outputs": [],
      "stateMutability": "nonpayable",
      "type": "function"
    },
    {
      "inputs": [
        {
          "internalType": "address",
          "name": "owner",
          "type": "address"
        }
      ],
      "name": "balanceOf",
      "outputs": [
        {
          "internalType": "uint256",
          "name": "",
          "type": "uint256"
        }
      ],
      "stateMutability": "view",
      "type": "function"
    },
    {
      "inputs": [
        {
          "internalType": "uint256",
          "name": "",
          "type": "uint256"
        }
      ],
      "name": "concerts",
      "outputs": [
        {
          "internalType": "string",
          "name": "artist",
          "type": "string"
        },
        {
          "internalType": "string",
          "name": "location",
          "type": "string"
        },
        {
          "internalType": "uint256",
          "name": "date",
          "type": "uint256"
        },
        {
          "internalType": "uint256",
          "name": "price",
          "type": "uint256"
        },
        {
          "internalType": "bool",
          "name": "forSale",
          "type": "bool"
        }
      ],
      "stateMutability": "view",
      "type": "function"
    },
    {
      "inputs": [
        {
          "internalType": "uint256",
          "name": "tokenId",
          "type": "uint256"
        }
      ],
      "name": "getApproved",
      "outputs": [
        {
          "internalType": "address",
          "name": "",
          "type": "address"
        }
      ],
      "stateMutability": "view",
      "type": "function"
    },
    {
      "inputs": [
        {
          "internalType": "address",
          "name": "owner",
          "type": "address"
        },
        {
          "internalType": "address",
          "name": "operator",
          "type": "address"
        }
      ],
      "name": "isApprovedForAll",
      "outputs": [
        {
          "internalType": "bool",
          "name": "",
          "type": "bool"
        }
      ],
      "stateMutability": "view",
      "type": "function"
    },
    {
      "inputs": [],
      "name": "name",
      "outputs": [
        {
          "internalType": "string",
          "name": "",
          "type": "string"
        }
      ],
      "stateMutability": "view",
      "type": "function"
    },
    {
      "inputs": [],
      "name": "owner",
      "outputs": [
        {
          "internalType": "address",
          "name": "",
          "type": "address"
        }
      ],
      "stateMutability": "view",
      "type": "function"
    },
    {
      "inputs": [
        {
          "internalType": "uint256",
          "name": "tokenId",
          "type": "uint256"
        }
      ],
      "name": "ownerOf",
      "outputs": [
        {
          "internalType": "address",
          "name": "",
          "type": "address"
        }
      ],
      "stateMutability": "view",
      "type": "function"
    },
    {
      "inputs": [],
      "name": "renounceOwnership",
      "outputs": [],
      "stateMutability": "nonpayable",
      "type": "function"
    },
    {
      "inputs": [
        {
          "internalType": "address",
          "name": "from",
          "type": "address"
        },
        {
          "internalType": "address",
          "name": "to",
          "type": "address"
        },
        {
          "internalType": "uint256",
          "name": "tokenId",
          "type": "uint256"
        }
      ],
      "name": "safeTransferFrom",
      "outputs": [],
      "stateMutability": "nonpayable",
      "type": "function"
    },
    {
      "inputs": [
        {
          "internalType": "address",
          "name": "from",
          "type": "address"
        },
        {
          "internalType": "address",
          "name": "to",
          "type": "address"
        },
        {
          "internalType": "uint256",
          "name": "tokenId",
          "type": "uint256"
        },
        {
          "internalType": "bytes",
          "name": "data",
          "type": "bytes"
        }
      ],
      "name": "safeTransferFrom",
      "outputs": [],
      "stateMutability": "nonpayable",
      "type": "function"
    },
    {
      "inputs": [
        {
          "internalType": "address",
          "name": "operator",
          "type": "address"
        },
        {
          "internalType": "bool",
          "name": "approved",
          "type": "bool"
        }
      ],
      "name": "setApprovalForAll",
      "outputs": [],
      "stateMutability": "nonpayable",
      "type": "function"
    },
    {
      "inputs": [
        {
          "internalType": "bytes4",
          "name": "interfaceId",
          "type": "bytes4"
        }
      ],
      "name": "supportsInterface",
      "outputs": [
        {
          "internalType": "bool",
          "name": "",
          "type": "bool"
        }
      ],
      "stateMutability": "view",
      "type": "function"
    },
    {
      "inputs": [],
      "name": "symbol",
      "outputs": [
        {
          "internalType": "string",
          "name": "",
          "type": "string"
        }
      ],
      "stateMutability": "view",
      "type": "function"
    },
    {
      "inputs": [],
      "name": "tokenCounter",
      "outputs": [
        {
          "internalType": "uint256",
          "name": "",
          "type": "uint256"
        }
      ],
      "stateMutability": "view",
      "type": "function"
    },
    {
      "inputs": [
        {
          "internalType": "uint256",
          "name": "tokenId",
          "type": "uint256"
        }
      ],
      "name": "tokenURI",
      "outputs": [
        {
          "internalType": "string",
          "name": "",
          "type": "string"
        }
      ],
      "stateMutability": "view",
      "type": "function"
    },
    {
      "inputs": [],
      "name": "totalConcerts",
      "outputs": [
        {
          "internalType": "uint256",
          "name": "",
          "type": "uint256"
        }
      ],
      "stateMutability": "view",
      "type": "function"
    },
    {
      "inputs": [
        {
          "internalType": "address",
          "name": "from",
          "type": "address"
        },
        {
          "internalType": "address",
          "name": "to",
          "type": "address"
        },
        {
          "internalType": "uint256",
          "name": "tokenId",
          "type": "uint256"
        }
      ],
      "name": "transferFrom",
      "outputs": [],
      "stateMutability": "nonpayable",
      "type": "function"
    },
    {
      "inputs": [
        {
          "internalType": "address",
          "name": "newOwner",
          "type": "address"
        }
      ],
      "name": "transferOwnership",
      "outputs": [],
      "stateMutability": "nonpayable",
      "type": "function"
    },
    {
      "inputs": [
        {
          "internalType": "string",
          "name": "_artist",
          "type": "string"
        },
        {
          "internalType": "string",
          "name": "_location",
          "type": "string"
        },
        {
          "internalType": "uint256",
          "name": "_date",
          "type": "uint256"
        },
        {
          "internalType": "uint256",
          "name": "_price",
          "type": "uint256"
        }
      ],
      "name": "createConcert",
      "outputs": [
        {
          "internalType": "uint256",
          "name": "",
          "type": "uint256"
        }
      ],
      "stateMutability": "nonpayable",
      "type": "function"
    },
    {
      "inputs": [
        {
          "internalType": "uint256",
          "name": "_tokenId",
          "type": "uint256"
        },
        {
          "internalType": "string",
          "name": "_artist",
          "type": "string"
        },
        {
          "internalType": "string",
          "name": "_location",
          "type": "string"
        },
        {
          "internalType": "uint256",
          "name": "_date",
          "type": "uint256"
        },
        {
          "internalType": "uint256",
          "name": "_price",
          "type": "uint256"
        },
        {
          "internalType": "bool",
          "name": "_forSale",
          "type": "bool"
        }
      ],
      "name": "updateConcert",
      "outputs": [],
      "stateMutability": "nonpayable",
      "type": "function"
    },
    {
      "inputs": [
        {
          "internalType": "uint256",
          "name": "_tokenId",
          "type": "uint256"
        }
      ],
      "name": "buyConcert",
      "outputs": [],
      "stateMutability": "payable",
      "type": "function"
    },
    {
      "inputs": [
        {
          "internalType": "uint256",
          "name": "_tokenId",
          "type": "uint256"
        },
        {
          "internalType": "bool",
          "name": "_forSale",
          "type": "bool"
        }
      ],
      "name": "setConcertForSale",
      "outputs": [],
      "stateMutability": "nonpayable",
      "type": "function"
    }
  ],
  "bytecode": "0x60806040523480156200001157600080fd5b506040518060400160405280600a81526020017f436f6e636572744e4654000000000000000000000000000000000000000000008152506040518060400160405280600581526020017f43544e4654000000000000000000000000000000000000000000000000000000815250816000908051906020019062000096929190620001ae565b508060019080519060200190620000af929190620001ae565b505050620000d2620000c6620000e060201b60201c565b620000e860201b60201c565b6000600881905550620002c3565b600033905090565b6000600660009054906101000a900473ffffffffffffffffffffffffffffffffffffffff16905081600660006101000a81548173ffffffffffffffffffffffffffffffffffffffff021916908373ffffffffffffffffffffffffffffffffffffffff1602179055508173ffffffffffffffffffffffffffffffffffffffff168173ffffffffffffffffffffffffffffffffffffffff167f8be0079c531659141344cd1fd0a4f28419497f9722a3daafe3b4186f6b6457e060405160405180910390a35050565b828054620001bc906200025e565b90600052602060002090601f016020900481019282620001e057600085556200022c565b82601f10620001fb57805160ff19168380011785556200022c565b828001600101855582156200022c579182015b828111156200022b5782518255916020019190600101906200020e565b5b5090506200023b91906200023f565b5090565b5b808211156200025a57600081600090555060010162000240565b5090565b600060028204905060018216806200027757607f821691505b602082108114156200028e576200028d62000294565b5b50919050565b7f4e487b7100000000000000000000000000000000000000000000000000000000600052602260045260246000fd5b61383d80620002d36000396000f3fe6080604052600436106101665760003560e01c80638da5cb5b116100d1578063c87b56dd1161008a578063e2c969a911610064578063e2c969a914610545578063e985e9c51461056e578063f2fde38b146105ab578063f76f8d78146105d457610166565b8063c87b56dd146104b2578063d082e381146104ef578063db750cd11461051a57610166565b80638da5cb5b1461039e57806395d89b41146103c9578063a22cb465146103f4578063a3f4df7e1461041d578063b88d4fde14610448578063beafe50c1461047157610166565b8063365c6dad11610123578063365c6dad1461027e57806342842e0e146102bb5780636352211e146102e4578063709d4b921461032157806370a082311461034a578063715018a61461038757610166565b806301ffc9a71461016b57806306fdde03146101a8578063081812fc146101d3578063095ea7b314610210578063157d18d61461023957806323b872dd14610255575b600080fd5b34801561017757600080fd5b50610192600480360381019061018d9190612798565b6105ff565b60405161019f9190612da6565b60405180910390f35b3480156101b457600080fd5b506101bd6106e1565b6040516101ca9190612dc1565b60405180910390f35b3480156101df57600080fd5b506101fa60048036038101906101f5919061287d565b610773565b6040516102079190612d3f565b60405180910390f35b34801561021c57600080fd5b506102376004803603810190610232919061275c565b6107b9565b005b610253600480360381019061024e919061287d565b6108d1565b005b34801561026157600080fd5b5061027c60048036038101906102779190612656565b610a60565b005b34801561028a57600080fd5b506102a560048036038101906102a091906127ea565b610ac0565b6040516102b291906130a5565b60405180910390f35b3480156102c757600080fd5b506102e260048036038101906102dd9190612656565b610c07565b005b3480156102f057600080fd5b5061030b6004803603810190610306919061287d565b610c27565b6040516103189190612d3f565b60405180910390f35b34801561032d57600080fd5b50610348600480360381019061034391906128a6565b610cae565b005b34801561035657600080fd5b50610371600480360381019061036c91906125f1565b610d36565b60405161037e91906130a5565b60405180910390f35b34801561039357600080fd5b5061039c610dee565b005b3480156103aa57600080fd5b506103b3610e02565b6040516103c09190612d3f565b60405180910390f35b3480156103d557600080fd5b506103de610e2c565b6040516103eb9190612dc1565b60405180910390f35b34801561040057600080fd5b5061041b60048036038101906104169190612720565b610ebe565b005b34801561042957600080fd5b50610432610ed4565b60405161043f9190612dc1565b60405180910390f35b34801561045457600080fd5b5061046f600480360381019061046a91906126a5565b610f0d565b005b34801561047d57600080fd5b506104986004803603810190610493919061287d565b610f6f565b6040516104a9959493929190612de3565b60405180910390f35b3480156104be57600080fd5b506104d960048036038101906104d4919061287d565b6110c2565b6040516104e69190612dc1565b60405180910390f35b3480156104fb57600080fd5b5061050461112a565b60405161051191906130a5565b60405180910390f35b34801561052657600080fd5b5061052f611130565b60405161053c91906130a5565b60405180910390f35b34801561055157600080fd5b5061056c600480360381019061056791906128e2565b611136565b005b34801561057a57600080fd5b506105956004803603810190610590919061261a565b611265565b6040516105a29190612da6565b60405180910390f35b3480156105b757600080fd5b506105d260048036038101906105cd91906125f1565b6112f9565b005b3480156105e057600080fd5b506105e961137d565b6040516105f69190612dc1565b60405180910390f35b60007f80ac58cd000000000000000000000000000000000000000000000000000000007bffffffffffffffffffffffffffffffffffffffffffffffffffffffff1916827bffffffffffffffffffffffffffffffffffffffffffffffffffffffff191614806106ca57507f5b5e139f000000000000000000000000000000000000000000000000000000007bffffffffffffffffffffffffffffffffffffffffffffffffffffffff1916827bffffffffffffffffffffffffffffffffffffffffffffffffffffffff1916145b806106da57506106d9826113b6565b5b9050919050565b6060600080546106f090613255565b80601f016020809104026020016040519081016040528092919081815260200182805461071c90613255565b80156107695780601f1061073e57610100808354040283529160200191610769565b820191906000526020600020905b81548152906001019060200180831161074c57829003601f168201915b5050505050905090565b600061077e82611420565b6004600083815260200190815260200160002060009054906101000a900473ffffffffffffffffffffffffffffffffffffffff169050919050565b60006107c482610c27565b90508073ffffffffffffffffffffffffffffffffffffffff168373ffffffffffffffffffffffffffffffffffffffff161415610835576040517f08c379a000000000000000000000000000000000000000000000000000000000815260040161082c90613045565b60405180910390fd5b8073ffffffffffffffffffffffffffffffffffffffff1661085461146b565b73ffffffffffffffffffffffffffffffffffffffff16148061088357506108828161087d61146b565b611265565b5b6108c2576040517f08c379a00000000000000000000000000000000000000000000000000000000081526004016108b990613065565b60405180910390fd5b6108cc8383611473565b505050565b6108da8161152c565b610919576040517f08c379a000000000000000000000000000000000000000000000000000000000815260040161091090612ee5565b60405180910390fd5b6000600960008381526020019081526020016000209050600115158160040160009054906101000a900460ff16151514610988576040517f08c379a000000000000000000000000000000000000000000000000000000000815260040161097f90613085565b60405180910390fd5b80600301543410156109cf576040517f08c379a00000000000000000000000000000000000000000000000000000000081526004016109c690613005565b60405180910390fd5b60006109da83610c27565b90508073ffffffffffffffffffffffffffffffffffffffff166108fc349081150290604051600060405180830381858888f19350505050158015610a22573d6000803e3d6000fd5b50610a3e8133856040518060200160405280600081525061156d565b60008260040160006101000a81548160ff021916908315150217905550505050565b610a71610a6b61146b565b826115c9565b610ab0576040517f08c379a0000000000000000000000000000000000000000000000000000000008152600401610aa790612ea5565b60405180910390fd5b610abb83838361165e565b505050565b6000610aca611958565b6000600854905060006040518060a0016040528088815260200187815260200186815260200185815260200160001515815250905080600960008481526020019081526020016000206000820151816000019080519060200190610b2f929190612415565b506020820151816001019080519060200190610b4c929190612415565b50604082015181600201556060820151816003015560808201518160040160006101000a81548160ff021916908315150217905550905050817f0b01d0df3df10c729cbb49dd214d68ca0ec24ee5dc05ca89c8e11bd68568bd0e82600001518360200151846040015185606001518660800151604051610bd0959493929190612de3565b60405180910390a2610be233836119d6565b60086000815480929190610bf5906132b8565b91905055508192505050949350505050565b610c2283838360405180602001604052806000815250610f0d565b505050565b600080610c33836119f4565b9050600073ffffffffffffffffffffffffffffffffffffffff168173ffffffffffffffffffffffffffffffffffffffff161415610ca5576040517f08c379a0000000000000000000000000000000000000000000000000000000008152600401610c9c90613025565b60405180910390fd5b80915050919050565b610cb6611958565b610cbf8261152c565b610cfe576040517f08c379a0000000000000000000000000000000000000000000000000000000008152600401610cf590612ee5565b60405180910390fd5b6000600960008481526020019081526020016000209050818160040160006101000a81548160ff021916908315150217905550505050565b60008073ffffffffffffffffffffffffffffffffffffffff168273ffffffffffffffffffffffffffffffffffffffff161415610da7576040517f08c379a0000000000000000000000000000000000000000000000000000000008152600401610d9e90612fa5565b60405180910390fd5b600360008373ffffffffffffffffffffffffffffffffffffffff1673ffffffffffffffffffffffffffffffffffffffff168152602001908152602001600020549050919050565b610df6611958565b610e006000611a31565b565b6000600660009054906101000a900473ffffffffffffffffffffffffffffffffffffffff16905090565b606060018054610e3b90613255565b80601f0160208091040260200160405190810160405280929190818152602001828054610e6790613255565b8015610eb45780601f10610e8957610100808354040283529160200191610eb4565b820191906000526020600020905b815481529060010190602001808311610e9757829003601f168201915b5050505050905090565b610ed0610ec961146b565b8383611af7565b5050565b6040518060400160405280600a81526020017f436f6e636572744e46540000000000000000000000000000000000000000000081525081565b610f1e610f1861146b565b836115c9565b610f5d576040517f08c379a0000000000000000000000000000000000000000000000000000000008152600401610f5490612ea5565b60405180910390fd5b610f698484848461156d565b50505050565b6009602052806000526040600020600091509050806000018054610f9290613255565b80601f0160208091040260200160405190810160405280929190818152602001828054610fbe90613255565b801561100b5780601f10610fe05761010080835404028352916020019161100b565b820191906000526020600020905b815481529060010190602001808311610fee57829003601f168201915b50505050509080600101805461102090613255565b80601f016020809104026020016040519081016040528092919081815260200182805461104c90613255565b80156110995780601f1061106e57610100808354040283529160200191611099565b820191906000526020600020905b81548152906001019060200180831161107c57829003601f168201915b5050505050908060020154908060030154908060040160009054906101000a900460ff16905085565b60606110cd82611420565b60006110d7611c64565b905060008151116110f75760405180602001604052806000815250611122565b8061110184611c7b565b604051602001611112929190612d1b565b6040516020818303038152906040525b915050919050565b60075481565b60085481565b61113e611958565b6111478661152c565b611186576040517f08c379a000000000000000000000000000000000000000000000000000000000815260040161117d90612ee5565b60405180910390fd5b6000600960008881526020019081526020016000209050858160000190805190602001906111b5929190612415565b50848160010190805190602001906111ce929190612415565b50838160020181905550828160030181905550818160040160006101000a81548160ff021916908315150217905550867fc3c008874dc0820860f95c43616b6cfee6c5f5bc8b80abfd3a22b1588d931e078260000183600101846002015485600301548660040160009054906101000a900460ff16604051611254959493929190612e44565b60405180910390a250505050505050565b6000600560008473ffffffffffffffffffffffffffffffffffffffff1673ffffffffffffffffffffffffffffffffffffffff16815260200190815260200160002060008373ffffffffffffffffffffffffffffffffffffffff1673ffffffffffffffffffffffffffffffffffffffff16815260200190815260200160002060009054906101000a900460ff16905092915050565b611301611958565b600073ffffffffffffffffffffffffffffffffffffffff168173ffffffffffffffffffffffffffffffffffffffff161415611371576040517f08c379a000000000000000000000000000000000000000000000000000000000815260040161136890612f05565b60405180910390fd5b61137a81611a31565b50565b6040518060400160405280600581526020017f43544e465400000000000000000000000000000000000000000000000000000081525081565b60007f01ffc9a7000000000000000000000000000000000000000000000000000000007bffffffffffffffffffffffffffffffffffffffffffffffffffffffff1916827bffffffffffffffffffffffffffffffffffffffffffffffffffffffff1916149050919050565b6114298161152c565b611468576040517f08c379a000000000000000000000000000000000000000000000000000000000815260040161145f90613025565b60405180910390fd5b50565b600033905090565b816004600083815260200190815260200160002060006101000a81548173ffffffffffffffffffffffffffffffffffffffff021916908373ffffffffffffffffffffffffffffffffffffffff160217905550808273ffffffffffffffffffffffffffffffffffffffff166114e683610c27565b73ffffffffffffffffffffffffffffffffffffffff167f8c5be1e5ebec7d5bd14f71427d1e84f3dd0314c0f7b2291e5b200ac8c7c3b92560405160405180910390a45050565b60008073ffffffffffffffffffffffffffffffffffffffff1661154e836119f4565b73ffffffffffffffffffffffffffffffffffffffff1614159050919050565b61157884848461165e565b61158484848484611d9f565b6115c3576040517f08c379a00000000000000000000000000000000000000000000000000000000081526004016115ba90612ec5565b60405180910390fd5b50505050565b6000806115d583610c27565b90508073ffffffffffffffffffffffffffffffffffffffff168473ffffffffffffffffffffffffffffffffffffffff16148061161757506116168185611265565b5b8061165557508373ffffffffffffffffffffffffffffffffffffffff1661163d84610773565b73ffffffffffffffffffffffffffffffffffffffff16145b91505092915050565b8273ffffffffffffffffffffffffffffffffffffffff1661167e82610c27565b73ffffffffffffffffffffffffffffffffffffffff16146116d4576040517f08c379a00000000000000000000000000000000000000000000000000000000081526004016116cb90612f25565b60405180910390fd5b600073ffffffffffffffffffffffffffffffffffffffff168273ffffffffffffffffffffffffffffffffffffffff161415611744576040517f08c379a000000000000000000000000000000000000000000000000000000000815260040161173b90612f65565b60405180910390fd5b6117518383836001611f36565b8273ffffffffffffffffffffffffffffffffffffffff1661177182610c27565b73ffffffffffffffffffffffffffffffffffffffff16146117c7576040517f08c379a00000000000000000000000000000000000000000000000000000000081526004016117be90612f25565b60405180910390fd5b6004600082815260200190815260200160002060006101000a81549073ffffffffffffffffffffffffffffffffffffffff02191690556001600360008573ffffffffffffffffffffffffffffffffffffffff1673ffffffffffffffffffffffffffffffffffffffff168152602001908152602001600020600082825403925050819055506001600360008473ffffffffffffffffffffffffffffffffffffffff1673ffffffffffffffffffffffffffffffffffffffff16815260200190815260200160002060008282540192505081905550816002600083815260200190815260200160002060006101000a81548173ffffffffffffffffffffffffffffffffffffffff021916908373ffffffffffffffffffffffffffffffffffffffff160217905550808273ffffffffffffffffffffffffffffffffffffffff168473ffffffffffffffffffffffffffffffffffffffff167fddf252ad1be2c89b69c2b068fc378daa952ba7f163c4a11628f55a4df523b3ef60405160405180910390a46119538383836001611f3c565b505050565b61196061146b565b73ffffffffffffffffffffffffffffffffffffffff1661197e610e02565b73ffffffffffffffffffffffffffffffffffffffff16146119d4576040517f08c379a00000000000000000000000000000000000000000000000000000000081526004016119cb90612fe5565b60405180910390fd5b565b6119f0828260405180602001604052806000815250611f42565b5050565b60006002600083815260200190815260200160002060009054906101000a900473ffffffffffffffffffffffffffffffffffffffff169050919050565b6000600660009054906101000a900473ffffffffffffffffffffffffffffffffffffffff16905081600660006101000a81548173ffffffffffffffffffffffffffffffffffffffff021916908373ffffffffffffffffffffffffffffffffffffffff1602179055508173ffffffffffffffffffffffffffffffffffffffff168173ffffffffffffffffffffffffffffffffffffffff167f8be0079c531659141344cd1fd0a4f28419497f9722a3daafe3b4186f6b6457e060405160405180910390a35050565b8173ffffffffffffffffffffffffffffffffffffffff168373ffffffffffffffffffffffffffffffffffffffff161415611b66576040517f08c379a0000000000000000000000000000000000000000000000000000000008152600401611b5d90612f85565b60405180910390fd5b80600560008573ffffffffffffffffffffffffffffffffffffffff1673ffffffffffffffffffffffffffffffffffffffff16815260200190815260200160002060008473ffffffffffffffffffffffffffffffffffffffff1673ffffffffffffffffffffffffffffffffffffffff16815260200190815260200160002060006101000a81548160ff0219169083151502179055508173ffffffffffffffffffffffffffffffffffffffff168373ffffffffffffffffffffffffffffffffffffffff167f17307eab39ab6107e8899845ad3d59bd9653f200f220920489ca2b5937696c3183604051611c579190612da6565b60405180910390a3505050565b606060405180602001604052806000815250905090565b606060006001611c8a84611f9d565b01905060008167ffffffffffffffff811115611ccf577f4e487b7100000000000000000000000000000000000000000000000000000000600052604160045260246000fd5b6040519080825280601f01601f191660200182016040528015611d015781602001600182028036833780820191505090505b509050600082602001820190505b600115611d94578080600190039150507f3031323334353637383961626364656600000000000000000000000000000000600a86061a8153600a8581611d7e577f4e487b7100000000000000000000000000000000000000000000000000000000600052601260045260246000fd5b0494506000851415611d8f57611d94565b611d0f565b819350505050919050565b6000611dc08473ffffffffffffffffffffffffffffffffffffffff166121d4565b15611f29578373ffffffffffffffffffffffffffffffffffffffff1663150b7a02611de961146b565b8786866040518563ffffffff1660e01b8152600401611e0b9493929190612d5a565b602060405180830381600087803b158015611e2557600080fd5b505af1925050508015611e5657506040513d601f19601f82011682018060405250810190611e5391906127c1565b60015b611ed9573d8060008114611e86576040519150601f19603f3d011682016040523d82523d6000602084013e611e8b565b606091505b50600081511415611ed1576040517f08c379a0000000000000000000000000000000000000000000000000000000008152600401611ec890612ec5565b60405180910390fd5b805181602001fd5b63150b7a0260e01b7bffffffffffffffffffffffffffffffffffffffffffffffffffffffff1916817bffffffffffffffffffffffffffffffffffffffffffffffffffffffff191614915050611f2e565b600190505b949350505050565b50505050565b50505050565b611f4c83836121f7565b611f596000848484611d9f565b611f98576040517f08c379a0000000000000000000000000000000000000000000000000000000008152600401611f8f90612ec5565b60405180910390fd5b505050565b600080600090507a184f03e93ff9f4daa797ed6e38ed64bf6a1f0100000000000000008310612021577a184f03e93ff9f4daa797ed6e38ed64bf6a1f0100000000000000008381612017577f4e487b7100000000000000000000000000000000000000000000000000000000600052601260045260246000fd5b0492506040810190505b6d04ee2d6d415b85acef81000000008310612084576d04ee2d6d415b85acef8100000000838161207a577f4e487b7100000000000000000000000000000000000000000000000000000000600052601260045260246000fd5b0492506020810190505b662386f26fc1000083106120d957662386f26fc1000083816120cf577f4e487b7100000000000000000000000000000000000000000000000000000000600052601260045260246000fd5b0492506010810190505b6305f5e1008310612128576305f5e100838161211e577f4e487b7100000000000000000000000000000000000000000000000000000000600052601260045260246000fd5b0492506008810190505b6127108310612173576127108381612169577f4e487b7100000000000000000000000000000000000000000000000000000000600052601260045260246000fd5b0492506004810190505b606483106121bc57606483816121b2577f4e487b7100000000000000000000000000000000000000000000000000000000600052601260045260246000fd5b0492506002810190505b600a83106121cb576001810190505b80915050919050565b6000808273ffffffffffffffffffffffffffffffffffffffff163b119050919050565b600073ffffffffffffffffffffffffffffffffffffffff168273ffffffffffffffffffffffffffffffffffffffff161415612267576040517f08c379a000000000000000000000000000000000000000000000000000000000815260040161225e90612fc5565b60405180910390fd5b6122708161152c565b156122b0576040517f08c379a00000000000000000000000000000000000000000000000000000000081526004016122a790612f45565b60405180910390fd5b6122be600083836001611f36565b6122c78161152c565b15612307576040517f08c379a00000000000000000000000000000000000000000000000000000000081526004016122fe90612f45565b60405180910390fd5b6001600360008473ffffffffffffffffffffffffffffffffffffffff1673ffffffffffffffffffffffffffffffffffffffff16815260200190815260200160002060008282540192505081905550816002600083815260200190815260200160002060006101000a81548173ffffffffffffffffffffffffffffffffffffffff021916908373ffffffffffffffffffffffffffffffffffffffff160217905550808273ffffffffffffffffffffffffffffffffffffffff16600073ffffffffffffffffffffffffffffffffffffffff167fddf252ad1be2c89b69c2b068fc378daa952ba7f163c4a11628f55a4df523b3ef60405160405180910390a4612411600083836001611f3c565b5050565b82805461242190613255565b90600052602060002090601f016020900481019282612443576000855561248a565b82601f1061245c57805160ff191683800117855561248a565b8280016001018555821561248a579182015b8281111561248957825182559160200191906001019061246e565b5b509050612497919061249b565b5090565b5b808211156124b457600081600090555060010161249c565b5090565b60006124cb6124c6846130e5565b6130c0565b9050828152602081018484840111156124e357600080fd5b6124ee848285613213565b509392505050565b600061250961250484613116565b6130c0565b90508281526020810184848401111561252157600080fd5b61252c848285613213565b509392505050565b600081359050612543816137ab565b92915050565b600081359050612558816137c2565b92915050565b60008135905061256d816137d9565b92915050565b600081519050612582816137d9565b92915050565b600082601f83011261259957600080fd5b81356125a98482602086016124b8565b91505092915050565b600082601f8301126125c357600080fd5b81356125d38482602086016124f6565b91505092915050565b6000813590506125eb816137f0565b92915050565b60006020828403121561260357600080fd5b600061261184828501612534565b91505092915050565b6000806040838503121561262d57600080fd5b600061263b85828601612534565b925050602061264c85828601612534565b9150509250929050565b60008060006060848603121561266b57600080fd5b600061267986828701612534565b935050602061268a86828701612534565b925050604061269b868287016125dc565b9150509250925092565b600080600080608085870312156126bb57600080fd5b60006126c987828801612534565b94505060206126da87828801612534565b93505060406126eb878288016125dc565b925050606085013567ffffffffffffffff81111561270857600080fd5b61271487828801612588565b91505092959194509250565b6000806040838503121561273357600080fd5b600061274185828601612534565b925050602061275285828601612549565b9150509250929050565b6000806040838503121561276f57600080fd5b600061277d85828601612534565b925050602061278e858286016125dc565b9150509250929050565b6000602082840312156127aa57600080fd5b60006127b88482850161255e565b91505092915050565b6000602082840312156127d357600080fd5b60006127e184828501612573565b91505092915050565b6000806000806080858703121561280057600080fd5b600085013567ffffffffffffffff81111561281a57600080fd5b612826878288016125b2565b945050602085013567ffffffffffffffff81111561284357600080fd5b61284f878288016125b2565b9350506040612860878288016125dc565b9250506060612871878288016125dc565b91505092959194509250565b60006020828403121561288f57600080fd5b600061289d848285016125dc565b91505092915050565b600080604083850312156128b957600080fd5b60006128c7858286016125dc565b92505060206128d885828601612549565b9150509250929050565b60008060008060008060c087890312156128fb57600080fd5b600061290989828a016125dc565b965050602087013567ffffffffffffffff81111561292657600080fd5b61293289828a016125b2565b955050604087013567ffffffffffffffff81111561294f57600080fd5b61295b89828a016125b2565b945050606061296c89828a016125dc565b935050608061297d89828a016125dc565b92505060a061298e89828a01612549565b9150509295509295509295565b6129a48161319f565b82525050565b6129b3816131b1565b82525050565b60006129c48261315c565b6129ce8185613172565b93506129de818560208601613222565b6129e78161338e565b840191505092915050565b60006129fd82613167565b612a078185613183565b9350612a17818560208601613222565b612a208161338e565b840191505092915050565b6000612a3682613167565b612a408185613194565b9350612a50818560208601613222565b80840191505092915050565b60008154612a6981613255565b612a738186613183565b94506001821660008114612a8e5760018114612aa057612ad3565b60ff1983168652602086019350612ad3565b612aa985613147565b60005b83811015612acb57815481890152600182019150602081019050612aac565b808801955050505b50505092915050565b6000612ae9602d83613183565b9150612af48261339f565b604082019050919050565b6000612b0c603283613183565b9150612b17826133ee565b604082019050919050565b6000612b2f602183613183565b9150612b3a8261343d565b604082019050919050565b6000612b52602683613183565b9150612b5d8261348c565b604082019050919050565b6000612b75602583613183565b9150612b80826134db565b604082019050919050565b6000612b98601c83613183565b9150612ba38261352a565b602082019050919050565b6000612bbb602483613183565b9150612bc682613553565b604082019050919050565b6000612bde601983613183565b9150612be9826135a2565b602082019050919050565b6000612c01602983613183565b9150612c0c826135cb565b604082019050919050565b6000612c24602083613183565b9150612c2f8261361a565b602082019050919050565b6000612c47602083613183565b9150612c5282613643565b602082019050919050565b6000612c6a602283613183565b9150612c758261366c565b604082019050919050565b6000612c8d601883613183565b9150612c98826136bb565b602082019050919050565b6000612cb0602183613183565b9150612cbb826136e4565b604082019050919050565b6000612cd3603d83613183565b9150612cde82613733565b604082019050919050565b6000612cf6601f83613183565b9150612d0182613782565b602082019050919050565b612d1581613209565b82525050565b6000612d278285612a2b565b9150612d338284612a2b565b91508190509392505050565b6000602082019050612d54600083018461299b565b92915050565b6000608082019050612d6f600083018761299b565b612d7c602083018661299b565b612d896040830185612d0c565b8181036060830152612d9b81846129b9565b905095945050505050565b6000602082019050612dbb60008301846129aa565b92915050565b60006020820190508181036000830152612ddb81846129f2565b905092915050565b600060a0820190508181036000830152612dfd81886129f2565b90508181036020830152612e1181876129f2565b9050612e206040830186612d0c565b612e2d6060830185612d0c565b612e3a60808301846129aa565b9695505050505050565b600060a0820190508181036000830152612e5e8188612a5c565b90508181036020830152612e728187612a5c565b9050612e816040830186612d0c565b612e8e6060830185612d0c565b612e9b60808301846129aa565b9695505050505050565b60006020820190508181036000830152612ebe81612adc565b9050919050565b60006020820190508181036000830152612ede81612aff565b9050919050565b60006020820190508181036000830152612efe81612b22565b9050919050565b60006020820190508181036000830152612f1e81612b45565b9050919050565b60006020820190508181036000830152612f3e81612b68565b9050919050565b60006020820190508181036000830152612f5e81612b8b565b9050919050565b60006020820190508181036000830152612f7e81612bae565b9050919050565b60006020820190508181036000830152612f9e81612bd1565b9050919050565b60006020820190508181036000830152612fbe81612bf4565b9050919050565b60006020820190508181036000830152612fde81612c17565b9050919050565b60006020820190508181036000830152612ffe81612c3a565b9050919050565b6000602082019050818103600083015261301e81612c5d565b9050919050565b6000602082019050818103600083015261303e81612c80565b9050919050565b6000602082019050818103600083015261305e81612ca3565b9050919050565b6000602082019050818103600083015261307e81612cc6565b9050919050565b6000602082019050818103600083015261309e81612ce9565b9050919050565b60006020820190506130ba6000830184612d0c565b92915050565b60006130ca6130db565b90506130d68282613287565b919050565b6000604051905090565b600067ffffffffffffffff821115613100576130ff61335f565b5b6131098261338e565b9050602081019050919050565b600067ffffffffffffffff8211156131315761313061335f565b5b61313a8261338e565b9050602081019050919050565b60008190508160005260206000209050919050565b600081519050919050565b600081519050919050565b600082825260208201905092915050565b600082825260208201905092915050565b600081905092915050565b60006131aa826131e9565b9050919050565b60008115159050919050565b60007fffffffff0000000000000000000000000000000000000000000000000000000082169050919050565b600073ffffffffffffffffffffffffffffffffffffffff82169050919050565b6000819050919050565b82818337600083830152505050565b60005b83811015613240578082015181840152602081019050613225565b8381111561324f576000848401525b50505050565b6000600282049050600182168061326d57607f821691505b6020821081141561328157613280613330565b5b50919050565b6132908261338e565b810181811067ffffffffffffffff821117156132af576132ae61335f565b5b80604052505050565b60006132c382613209565b91507fffffffffffffffffffffffffffffffffffffffffffffffffffffffffffffffff8214156132f6576132f5613301565b5b600182019050919050565b7f4e487b7100000000000000000000000000000000000000000000000000000000600052601160045260246000fd5b7f4e487b7100000000000000000000000000000000000000000000000000000000600052602260045260246000fd5b7f4e487b7100000000000000000000000000000000000000000000000000000000600052604160045260246000fd5b6000601f19601f8301169050919050565b7f4552433732313a2063616c6c6572206973206e6f7420746f6b656e206f776e6560008201527f72206f7220617070726f76656400000000000000000000000000000000000000602082015250565b7f4552433732313a207472616e7366657220746f206e6f6e20455243373231526560008201527f63656976657220696d706c656d656e7465720000000000000000000000000000602082015250565b7f436f6e636572744e46543a20546f6b656e20646f6573206e6f7420657869737460008201527f2e00000000000000000000000000000000000000000000000000000000000000602082015250565b7f4f776e61626c653a206e6577206f776e657220697320746865207a65726f206160008201527f6464726573730000000000000000000000000000000000000000000000000000602082015250565b7f4552433732313a207472616e736665722066726f6d20696e636f72726563742060008201527f6f776e6572000000000000000000000000000000000000000000000000000000602082015250565b7f4552433732313a20746f6b656e20616c7265616479206d696e74656400000000600082015250565b7f4552433732313a207472616e7366657220746f20746865207a65726f2061646460008201527f7265737300000000000000000000000000000000000000000000000000000000602082015250565b7f4552433732313a20617070726f766520746f2063616c6c657200000000000000600082015250565b7f4552433732313a2061646472657373207a65726f206973206e6f74206120766160008201527f6c6964206f776e65720000000000000000000000000000000000000000000000602082015250565b7f4552433732313a206d696e7420746f20746865207a65726f2061646472657373600082015250565b7f4f776e61626c653a2063616c6c6572206973206e6f7420746865206f776e6572600082015250565b7f436f6e636572744e46543a204e6f7420656e6f7567682045746865722073656e60008201527f742e000000000000000000000000000000000000000000000000000000000000602082015250565b7f4552433732313a20696e76616c696420746f6b656e2049440000000000000000600082015250565b7f4552433732313a20617070726f76616c20746f2063757272656e74206f776e6560008201527f7200000000000000000000000000000000000000000000000000000000000000602082015250565b7f4552433732313a20617070726f76652063616c6c6572206973206e6f7420746f60008201527f6b656e206f776e6572206f7220617070726f76656420666f7220616c6c000000602082015250565b7f436f6e636572744e46543a20546f6b656e206e6f7420666f722073616c652e00600082015250565b6137b48161319f565b81146137bf57600080fd5b50565b6137cb816131b1565b81146137d657600080fd5b50565b6137e2816131bd565b81146137ed57600080fd5b50565b6137f981613209565b811461380457600080fd5b5056fea2646970667358221220687efc0b8b45e1c9af49c6b8fc3f6c93dc6d3dbcf7f5823c1ed483b9a9ebb77364736f6c63430008010033",
  "immutableReferences": {},
  "source": "// SPDX-License-Identifier: MIT\r\npragma solidity ^0.8.0;\r\n\r\nimport \"@openzeppelin/contracts/token/ERC721/ERC721.sol\";\r\nimport \"@openzeppelin/contracts/access/Ownable.sol\";\r\n\r\ncontract ConcertNFT is ERC721, Ownable {\r\n    string public constant NAME = \"ConcertNFT\";\r\n    string public constant SYMBOL = \"CTNFT\";\r\n\r\n    uint256 public tokenCounter;\r\n    uint256 public totalConcerts;\r\n\r\n    constructor() ERC721(NAME, SYMBOL) {\r\n        totalConcerts = 0;\r\n    }\r\n\r\n    struct Concert {\r\n        string artist;\r\n        string location;\r\n        uint256 date;\r\n        uint256 price;\r\n        bool forSale;\r\n    }\r\n\r\n    mapping(uint256 => Concert) public concerts;\r\n\r\n    event ConcertCreated(\r\n        uint256 indexed id,\r\n        string artist,\r\n        string location,\r\n        uint256 date,\r\n        uint256 price,\r\n        bool forSale\r\n    );\r\n\r\n    event ConcertUpdated(\r\n        uint256 indexed id,\r\n        string artist,\r\n        string location,\r\n        uint256 date,\r\n        uint256 price,\r\n        bool forSale\r\n    );\r\n\r\n    function createConcert(\r\n        string memory _artist,\r\n        string memory _location,\r\n        uint256 _date,\r\n        uint256 _price\r\n    ) public onlyOwner returns (uint256) {\r\n        uint256 tokenId = totalConcerts;\r\n        Concert memory newConcert = Concert({\r\n            artist: _artist,\r\n            location: _location,\r\n            date: _date,\r\n            price: _price,\r\n            forSale: false\r\n        });\r\n        concerts[tokenId] = newConcert;\r\n        emit ConcertCreated(\r\n            tokenId,\r\n            newConcert.artist,\r\n            newConcert.location,\r\n            newConcert.date,\r\n            newConcert.price,\r\n            newConcert.forSale\r\n        );\r\n        _safeMint(msg.sender, tokenId);\r\n        totalConcerts++;\r\n        return tokenId;\r\n    }\r\n\r\n    function updateConcert(\r\n        uint256 _tokenId,\r\n        string memory _artist,\r\n        string memory _location,\r\n        uint256 _date,\r\n        uint256 _price,\r\n        bool _forSale\r\n    ) public onlyOwner {\r\n        require(_exists(_tokenId), \"ConcertNFT: Token does not exist.\");\r\n        Concert storage concert = concerts[_tokenId];\r\n        concert.artist = _artist;\r\n        concert.location = _location;\r\n        concert.date = _date;\r\n        concert.price = _price;\r\n        concert.forSale = _forSale;\r\n        emit ConcertUpdated(\r\n            _tokenId,\r\n            concert.artist,\r\n            concert.location,\r\n            concert.date,\r\n            concert.price,\r\n            concert.forSale\r\n        );\r\n    }\r\n\r\n    function buyConcert(uint256 _tokenId) public payable {\r\n        require(_exists(_tokenId), \"ConcertNFT: Token does not exist.\");\r\n        Concert storage concert = concerts[_tokenId];\r\n        require(concert.forSale == true, \"ConcertNFT: Token not for sale.\");\r\n        require(msg.value >= concert.price, \"ConcertNFT: Not enough Ether sent.\");\r\n        address payable owner = payable(ownerOf(_tokenId));\r\n        owner.transfer(msg.value);\r\n        _safeTransfer(owner, msg.sender, _tokenId, \"\");\r\n        concert.forSale = false;\r\n    }\r\n\r\n    function setConcertForSale(uint256 _tokenId, bool _forSale) public onlyOwner {\r\n        require(_exists(_tokenId), \"ConcertNFT: Token does not exist.\");\r\n        Concert storage concert = concerts[_tokenId];\r\n        concert.forSale = _forSale;\r\n    }\r\n}",
  "sourcePath": "C:\\Users\\ruben\\Documents\\ProjetMajeure\\contracts\\ConcertNFT.sol",
  "compiler": {
    "name": "solc",
    "version": "0.8.1+commit.df193b15.Emscripten.clang"
  },
  "schemaVersion": "3.4.13",
  "updatedAt": "2023-03-20T16:40:32.893Z",
  "devdoc": {
    "kind": "dev",
    "methods": {
      "approve(address,uint256)": {
        "details": "See {IERC721-approve}."
      },
      "balanceOf(address)": {
        "details": "See {IERC721-balanceOf}."
      },
      "getApproved(uint256)": {
        "details": "See {IERC721-getApproved}."
      },
      "isApprovedForAll(address,address)": {
        "details": "See {IERC721-isApprovedForAll}."
      },
      "name()": {
        "details": "See {IERC721Metadata-name}."
      },
      "owner()": {
        "details": "Returns the address of the current owner."
      },
      "ownerOf(uint256)": {
        "details": "See {IERC721-ownerOf}."
      },
      "renounceOwnership()": {
        "details": "Leaves the contract without owner. It will not be possible to call `onlyOwner` functions anymore. Can only be called by the current owner. NOTE: Renouncing ownership will leave the contract without an owner, thereby removing any functionality that is only available to the owner."
      },
      "safeTransferFrom(address,address,uint256)": {
        "details": "See {IERC721-safeTransferFrom}."
      },
      "safeTransferFrom(address,address,uint256,bytes)": {
        "details": "See {IERC721-safeTransferFrom}."
      },
      "setApprovalForAll(address,bool)": {
        "details": "See {IERC721-setApprovalForAll}."
      },
      "supportsInterface(bytes4)": {
        "details": "See {IERC165-supportsInterface}."
      },
      "symbol()": {
        "details": "See {IERC721Metadata-symbol}."
      },
      "tokenURI(uint256)": {
        "details": "See {IERC721Metadata-tokenURI}."
      },
      "transferFrom(address,address,uint256)": {
        "details": "See {IERC721-transferFrom}."
      },
      "transferOwnership(address)": {
        "details": "Transfers ownership of the contract to a new account (`newOwner`). Can only be called by the current owner."
      }
    },
    "version": 1
  },
  "userdoc": {
    "kind": "user",
    "methods": {},
    "version": 1
  }
}