{
  "contractName": "ConcertTicket",
  "abi": [
    {
      "inputs": [],
      "stateMutability": "nonpayable",
      "type": "constructor"
    },
    {
      "anonymous": false,
      "inputs": [
        {
          "indexed": true,
          "internalType": "address",
          "name": "owner",
          "type": "address"
        },
        {
          "indexed": true,
          "internalType": "address",
          "name": "approved",
          "type": "address"
        },
        {
          "indexed": true,
          "internalType": "uint256",
          "name": "tokenId",
          "type": "uint256"
        }
      ],
      "name": "Approval",
      "type": "event"
    },
    {
      "anonymous": false,
      "inputs": [
        {
          "indexed": true,
          "internalType": "address",
          "name": "owner",
          "type": "address"
        },
        {
          "indexed": true,
          "internalType": "address",
          "name": "operator",
          "type": "address"
        },
        {
          "indexed": false,
          "internalType": "bool",
          "name": "approved",
          "type": "bool"
        }
      ],
      "name": "ApprovalForAll",
      "type": "event"
    },
    {
      "anonymous": false,
      "inputs": [
        {
          "indexed": true,
          "internalType": "address",
          "name": "previousOwner",
          "type": "address"
        },
        {
          "indexed": true,
          "internalType": "address",
          "name": "newOwner",
          "type": "address"
        }
      ],
      "name": "OwnershipTransferred",
      "type": "event"
    },
    {
      "anonymous": false,
      "inputs": [
        {
          "indexed": true,
          "internalType": "address",
          "name": "from",
          "type": "address"
        },
        {
          "indexed": true,
          "internalType": "address",
          "name": "to",
          "type": "address"
        },
        {
          "indexed": true,
          "internalType": "uint256",
          "name": "tokenId",
          "type": "uint256"
        }
      ],
      "name": "Transfer",
      "type": "event"
    },
    {
      "inputs": [
        {
          "internalType": "address",
          "name": "to",
          "type": "address"
        },
        {
          "internalType": "uint256",
          "name": "tokenId",
          "type": "uint256"
        }
      ],
      "name": "approve",
      "outputs": [],
      "stateMutability": "nonpayable",
      "type": "function"
    },
    {
      "inputs": [
        {
          "internalType": "address",
          "name": "owner",
          "type": "address"
        }
      ],
      "name": "balanceOf",
      "outputs": [
        {
          "internalType": "uint256",
          "name": "",
          "type": "uint256"
        }
      ],
      "stateMutability": "view",
      "type": "function"
    },
    {
      "inputs": [
        {
          "internalType": "uint256",
          "name": "",
          "type": "uint256"
        }
      ],
      "name": "concerts",
      "outputs": [
        {
          "internalType": "string",
          "name": "name",
          "type": "string"
        },
        {
          "internalType": "uint256",
          "name": "price",
          "type": "uint256"
        },
        {
          "internalType": "uint256",
          "name": "totalTickets",
          "type": "uint256"
        },
        {
          "internalType": "uint256",
          "name": "soldTickets",
          "type": "uint256"
        },
        {
          "internalType": "bool",
          "name": "isActive",
          "type": "bool"
        }
      ],
      "stateMutability": "view",
      "type": "function"
    },
    {
      "inputs": [
        {
          "internalType": "uint256",
          "name": "tokenId",
          "type": "uint256"
        }
      ],
      "name": "getApproved",
      "outputs": [
        {
          "internalType": "address",
          "name": "",
          "type": "address"
        }
      ],
      "stateMutability": "view",
      "type": "function"
    },
    {
      "inputs": [
        {
          "internalType": "address",
          "name": "owner",
          "type": "address"
        },
        {
          "internalType": "address",
          "name": "operator",
          "type": "address"
        }
      ],
      "name": "isApprovedForAll",
      "outputs": [
        {
          "internalType": "bool",
          "name": "",
          "type": "bool"
        }
      ],
      "stateMutability": "view",
      "type": "function"
    },
    {
      "inputs": [],
      "name": "name",
      "outputs": [
        {
          "internalType": "string",
          "name": "",
          "type": "string"
        }
      ],
      "stateMutability": "view",
      "type": "function"
    },
    {
      "inputs": [],
      "name": "owner",
      "outputs": [
        {
          "internalType": "address",
          "name": "",
          "type": "address"
        }
      ],
      "stateMutability": "view",
      "type": "function"
    },
    {
      "inputs": [
        {
          "internalType": "uint256",
          "name": "tokenId",
          "type": "uint256"
        }
      ],
      "name": "ownerOf",
      "outputs": [
        {
          "internalType": "address",
          "name": "",
          "type": "address"
        }
      ],
      "stateMutability": "view",
      "type": "function"
    },
    {
      "inputs": [],
      "name": "renounceOwnership",
      "outputs": [],
      "stateMutability": "nonpayable",
      "type": "function"
    },
    {
      "inputs": [
        {
          "internalType": "address",
          "name": "from",
          "type": "address"
        },
        {
          "internalType": "address",
          "name": "to",
          "type": "address"
        },
        {
          "internalType": "uint256",
          "name": "tokenId",
          "type": "uint256"
        }
      ],
      "name": "safeTransferFrom",
      "outputs": [],
      "stateMutability": "nonpayable",
      "type": "function"
    },
    {
      "inputs": [
        {
          "internalType": "address",
          "name": "from",
          "type": "address"
        },
        {
          "internalType": "address",
          "name": "to",
          "type": "address"
        },
        {
          "internalType": "uint256",
          "name": "tokenId",
          "type": "uint256"
        },
        {
          "internalType": "bytes",
          "name": "data",
          "type": "bytes"
        }
      ],
      "name": "safeTransferFrom",
      "outputs": [],
      "stateMutability": "nonpayable",
      "type": "function"
    },
    {
      "inputs": [
        {
          "internalType": "address",
          "name": "operator",
          "type": "address"
        },
        {
          "internalType": "bool",
          "name": "approved",
          "type": "bool"
        }
      ],
      "name": "setApprovalForAll",
      "outputs": [],
      "stateMutability": "nonpayable",
      "type": "function"
    },
    {
      "inputs": [
        {
          "internalType": "bytes4",
          "name": "interfaceId",
          "type": "bytes4"
        }
      ],
      "name": "supportsInterface",
      "outputs": [
        {
          "internalType": "bool",
          "name": "",
          "type": "bool"
        }
      ],
      "stateMutability": "view",
      "type": "function"
    },
    {
      "inputs": [],
      "name": "symbol",
      "outputs": [
        {
          "internalType": "string",
          "name": "",
          "type": "string"
        }
      ],
      "stateMutability": "view",
      "type": "function"
    },
    {
      "inputs": [
        {
          "internalType": "uint256",
          "name": "tokenId",
          "type": "uint256"
        }
      ],
      "name": "tokenURI",
      "outputs": [
        {
          "internalType": "string",
          "name": "",
          "type": "string"
        }
      ],
      "stateMutability": "view",
      "type": "function"
    },
    {
      "inputs": [
        {
          "internalType": "address",
          "name": "from",
          "type": "address"
        },
        {
          "internalType": "address",
          "name": "to",
          "type": "address"
        },
        {
          "internalType": "uint256",
          "name": "tokenId",
          "type": "uint256"
        }
      ],
      "name": "transferFrom",
      "outputs": [],
      "stateMutability": "nonpayable",
      "type": "function"
    },
    {
      "inputs": [
        {
          "internalType": "address",
          "name": "newOwner",
          "type": "address"
        }
      ],
      "name": "transferOwnership",
      "outputs": [],
      "stateMutability": "nonpayable",
      "type": "function"
    },
    {
      "inputs": [
        {
          "internalType": "address",
          "name": "",
          "type": "address"
        },
        {
          "internalType": "uint256",
          "name": "",
          "type": "uint256"
        }
      ],
      "name": "userTickets",
      "outputs": [
        {
          "internalType": "uint256",
          "name": "",
          "type": "uint256"
        }
      ],
      "stateMutability": "view",
      "type": "function"
    },
    {
      "inputs": [
        {
          "internalType": "uint256",
          "name": "_id",
          "type": "uint256"
        },
        {
          "internalType": "string",
          "name": "_name",
          "type": "string"
        },
        {
          "internalType": "uint256",
          "name": "_price",
          "type": "uint256"
        },
        {
          "internalType": "uint256",
          "name": "_totalTickets",
          "type": "uint256"
        }
      ],
      "name": "createConcert",
      "outputs": [],
      "stateMutability": "nonpayable",
      "type": "function"
    },
    {
      "inputs": [
        {
          "internalType": "uint256",
          "name": "_id",
          "type": "uint256"
        }
      ],
      "name": "buyTicket",
      "outputs": [],
      "stateMutability": "payable",
      "type": "function"
    },
    {
      "inputs": [
        {
          "internalType": "address",
          "name": "_user",
          "type": "address"
        }
      ],
      "name": "getTickets",
      "outputs": [
        {
          "internalType": "uint256[]",
          "name": "",
          "type": "uint256[]"
        }
      ],
      "stateMutability": "view",
      "type": "function"
    }
  ],
  "bytecode": "0x60806040523480156200001157600080fd5b506040518060400160405280600e81526020017f436f6e63657274205469636b65740000000000000000000000000000000000008152506040518060400160405280600281526020017f4354000000000000000000000000000000000000000000000000000000000000815250816000908051906020019062000096929190620001a6565b508060019080519060200190620000af929190620001a6565b505050620000d2620000c6620000d860201b60201c565b620000e060201b60201c565b620002bb565b600033905090565b6000600660009054906101000a900473ffffffffffffffffffffffffffffffffffffffff16905081600660006101000a81548173ffffffffffffffffffffffffffffffffffffffff021916908373ffffffffffffffffffffffffffffffffffffffff1602179055508173ffffffffffffffffffffffffffffffffffffffff168173ffffffffffffffffffffffffffffffffffffffff167f8be0079c531659141344cd1fd0a4f28419497f9722a3daafe3b4186f6b6457e060405160405180910390a35050565b828054620001b49062000256565b90600052602060002090601f016020900481019282620001d8576000855562000224565b82601f10620001f357805160ff191683800117855562000224565b8280016001018555821562000224579182015b828111156200022357825182559160200191906001019062000206565b5b50905062000233919062000237565b5090565b5b808211156200025257600081600090555060010162000238565b5090565b600060028204905060018216806200026f57607f821691505b602082108114156200028657620002856200028c565b5b50919050565b7f4e487b7100000000000000000000000000000000000000000000000000000000600052602260045260246000fd5b6134b680620002cb6000396000f3fe60806040526004361061012a5760003560e01c8063715018a6116100ab578063beafe50c1161006f578063beafe50c146103e1578063c659232214610422578063c87b56dd1461044b578063cf260baf14610488578063e985e9c5146104c5578063f2fde38b146105025761012a565b8063715018a6146103225780638da5cb5b1461033957806395d89b4114610364578063a22cb4651461038f578063b88d4fde146103b85761012a565b806323b872dd116100f257806323b872dd1461023a57806342842e0e146102635780636352211e1461028c57806367dd74ca146102c957806370a08231146102e55761012a565b806301ffc9a71461012f57806306fdde031461016c578063081812fc14610197578063095ea7b3146101d45780630ad182bc146101fd575b600080fd5b34801561013b57600080fd5b506101566004803603810190610151919061250e565b61052b565b6040516101639190612a59565b60405180910390f35b34801561017857600080fd5b5061018161060d565b60405161018e9190612a74565b60405180910390f35b3480156101a357600080fd5b506101be60048036038101906101b99190612560565b61069f565b6040516101cb91906129d0565b60405180910390f35b3480156101e057600080fd5b506101fb60048036038101906101f691906124d2565b6106e5565b005b34801561020957600080fd5b50610224600480360381019061021f9190612367565b6107fd565b6040516102319190612a37565b60405180910390f35b34801561024657600080fd5b50610261600480360381019061025c91906123cc565b610894565b005b34801561026f57600080fd5b5061028a600480360381019061028591906123cc565b6108f4565b005b34801561029857600080fd5b506102b360048036038101906102ae9190612560565b610914565b6040516102c091906129d0565b60405180910390f35b6102e360048036038101906102de9190612560565b61099b565b005b3480156102f157600080fd5b5061030c60048036038101906103079190612367565b610b7e565b6040516103199190612d10565b60405180910390f35b34801561032e57600080fd5b50610337610c36565b005b34801561034557600080fd5b5061034e610c4a565b60405161035b91906129d0565b60405180910390f35b34801561037057600080fd5b50610379610c74565b6040516103869190612a74565b60405180910390f35b34801561039b57600080fd5b506103b660048036038101906103b19190612496565b610d06565b005b3480156103c457600080fd5b506103df60048036038101906103da919061241b565b610d1c565b005b3480156103ed57600080fd5b5061040860048036038101906104039190612560565b610d7e565b604051610419959493929190612a96565b60405180910390f35b34801561042e57600080fd5b5061044960048036038101906104449190612589565b610e49565b005b34801561045757600080fd5b50610472600480360381019061046d9190612560565b610f57565b60405161047f9190612a74565b60405180910390f35b34801561049457600080fd5b506104af60048036038101906104aa91906124d2565b610fbf565b6040516104bc9190612d10565b60405180910390f35b3480156104d157600080fd5b506104ec60048036038101906104e79190612390565b610ff0565b6040516104f99190612a59565b60405180910390f35b34801561050e57600080fd5b5061052960048036038101906105249190612367565b611084565b005b60007f80ac58cd000000000000000000000000000000000000000000000000000000007bffffffffffffffffffffffffffffffffffffffffffffffffffffffff1916827bffffffffffffffffffffffffffffffffffffffffffffffffffffffff191614806105f657507f5b5e139f000000000000000000000000000000000000000000000000000000007bffffffffffffffffffffffffffffffffffffffffffffffffffffffff1916827bffffffffffffffffffffffffffffffffffffffffffffffffffffffff1916145b80610606575061060582611108565b5b9050919050565b60606000805461061c90612f3a565b80601f016020809104026020016040519081016040528092919081815260200182805461064890612f3a565b80156106955780601f1061066a57610100808354040283529160200191610695565b820191906000526020600020905b81548152906001019060200180831161067857829003601f168201915b5050505050905090565b60006106aa82611172565b6004600083815260200190815260200160002060009054906101000a900473ffffffffffffffffffffffffffffffffffffffff169050919050565b60006106f082610914565b90508073ffffffffffffffffffffffffffffffffffffffff168373ffffffffffffffffffffffffffffffffffffffff161415610761576040517f08c379a000000000000000000000000000000000000000000000000000000000815260040161075890612cb0565b60405180910390fd5b8073ffffffffffffffffffffffffffffffffffffffff166107806111bd565b73ffffffffffffffffffffffffffffffffffffffff1614806107af57506107ae816107a96111bd565b610ff0565b5b6107ee576040517f08c379a00000000000000000000000000000000000000000000000000000000081526004016107e590612cf0565b60405180910390fd5b6107f883836111c5565b505050565b6060600960008373ffffffffffffffffffffffffffffffffffffffff1673ffffffffffffffffffffffffffffffffffffffff16815260200190815260200160002080548060200260200160405190810160405280929190818152602001828054801561088857602002820191906000526020600020905b815481526020019060010190808311610874575b50505050509050919050565b6108a561089f6111bd565b8261127e565b6108e4576040517f08c379a00000000000000000000000000000000000000000000000000000000081526004016108db90612af0565b60405180910390fd5b6108ef838383611313565b505050565b61090f83838360405180602001604052806000815250610d1c565b505050565b6000806109208361160d565b9050600073ffffffffffffffffffffffffffffffffffffffff168173ffffffffffffffffffffffffffffffffffffffff161415610992576040517f08c379a000000000000000000000000000000000000000000000000000000000815260040161098990612c90565b60405180910390fd5b80915050919050565b6008600082815260200190815260200160002060040160009054906101000a900460ff166109fe576040517f08c379a00000000000000000000000000000000000000000000000000000000081526004016109f590612cd0565b60405180910390fd5b6008600082815260200190815260200160002060020154600860008381526020019081526020016000206003015410610a6c576040517f08c379a0000000000000000000000000000000000000000000000000000000008152600401610a6390612c50565b60405180910390fd5b60086000828152602001908152602001600020600101543414610ac4576040517f08c379a0000000000000000000000000000000000000000000000000000000008152600401610abb90612b90565b60405180910390fd5b610ace600761164a565b6000610ada6007611660565b9050610ae6338261166e565b600960003373ffffffffffffffffffffffffffffffffffffffff1673ffffffffffffffffffffffffffffffffffffffff1681526020019081526020016000208190806001815401808255809150506001900390600052602060002001600090919091909150556001600860008481526020019081526020016000206003016000828254610b739190612e2e565b925050819055505050565b60008073ffffffffffffffffffffffffffffffffffffffff168273ffffffffffffffffffffffffffffffffffffffff161415610bef576040517f08c379a0000000000000000000000000000000000000000000000000000000008152600401610be690612c10565b60405180910390fd5b600360008373ffffffffffffffffffffffffffffffffffffffff1673ffffffffffffffffffffffffffffffffffffffff168152602001908152602001600020549050919050565b610c3e61168c565b610c48600061170a565b565b6000600660009054906101000a900473ffffffffffffffffffffffffffffffffffffffff16905090565b606060018054610c8390612f3a565b80601f0160208091040260200160405190810160405280929190818152602001828054610caf90612f3a565b8015610cfc5780601f10610cd157610100808354040283529160200191610cfc565b820191906000526020600020905b815481529060010190602001808311610cdf57829003601f168201915b5050505050905090565b610d18610d116111bd565b83836117d0565b5050565b610d2d610d276111bd565b8361127e565b610d6c576040517f08c379a0000000000000000000000000000000000000000000000000000000008152600401610d6390612af0565b60405180910390fd5b610d788484848461193d565b50505050565b6008602052806000526040600020600091509050806000018054610da190612f3a565b80601f0160208091040260200160405190810160405280929190818152602001828054610dcd90612f3a565b8015610e1a5780601f10610def57610100808354040283529160200191610e1a565b820191906000526020600020905b815481529060010190602001808311610dfd57829003601f168201915b5050505050908060010154908060020154908060030154908060040160009054906101000a900460ff16905085565b610e5161168c565b6008600085815260200190815260200160002060040160009054906101000a900460ff1615610eb5576040517f08c379a0000000000000000000000000000000000000000000000000000000008152600401610eac90612bf0565b60405180910390fd5b6040518060a001604052808481526020018381526020018281526020016000815260200160011515815250600860008681526020019081526020016000206000820151816000019080519060200190610f0f92919061218b565b5060208201518160010155604082015181600201556060820151816003015560808201518160040160006101000a81548160ff02191690831515021790555090505050505050565b6060610f6282611172565b6000610f6c611999565b90506000815111610f8c5760405180602001604052806000815250610fb7565b80610f96846119b0565b604051602001610fa79291906129ac565b6040516020818303038152906040525b915050919050565b60096020528160005260406000208181548110610fdb57600080fd5b90600052602060002001600091509150505481565b6000600560008473ffffffffffffffffffffffffffffffffffffffff1673ffffffffffffffffffffffffffffffffffffffff16815260200190815260200160002060008373ffffffffffffffffffffffffffffffffffffffff1673ffffffffffffffffffffffffffffffffffffffff16815260200190815260200160002060009054906101000a900460ff16905092915050565b61108c61168c565b600073ffffffffffffffffffffffffffffffffffffffff168173ffffffffffffffffffffffffffffffffffffffff1614156110fc576040517f08c379a00000000000000000000000000000000000000000000000000000000081526004016110f390612b30565b60405180910390fd5b6111058161170a565b50565b60007f01ffc9a7000000000000000000000000000000000000000000000000000000007bffffffffffffffffffffffffffffffffffffffffffffffffffffffff1916827bffffffffffffffffffffffffffffffffffffffffffffffffffffffff1916149050919050565b61117b81611ad4565b6111ba576040517f08c379a00000000000000000000000000000000000000000000000000000000081526004016111b190612c90565b60405180910390fd5b50565b600033905090565b816004600083815260200190815260200160002060006101000a81548173ffffffffffffffffffffffffffffffffffffffff021916908373ffffffffffffffffffffffffffffffffffffffff160217905550808273ffffffffffffffffffffffffffffffffffffffff1661123883610914565b73ffffffffffffffffffffffffffffffffffffffff167f8c5be1e5ebec7d5bd14f71427d1e84f3dd0314c0f7b2291e5b200ac8c7c3b92560405160405180910390a45050565b60008061128a83610914565b90508073ffffffffffffffffffffffffffffffffffffffff168473ffffffffffffffffffffffffffffffffffffffff1614806112cc57506112cb8185610ff0565b5b8061130a57508373ffffffffffffffffffffffffffffffffffffffff166112f28461069f565b73ffffffffffffffffffffffffffffffffffffffff16145b91505092915050565b8273ffffffffffffffffffffffffffffffffffffffff1661133382610914565b73ffffffffffffffffffffffffffffffffffffffff1614611389576040517f08c379a000000000000000000000000000000000000000000000000000000000815260040161138090612b50565b60405180910390fd5b600073ffffffffffffffffffffffffffffffffffffffff168273ffffffffffffffffffffffffffffffffffffffff1614156113f9576040517f08c379a00000000000000000000000000000000000000000000000000000000081526004016113f090612bb0565b60405180910390fd5b6114068383836001611b15565b8273ffffffffffffffffffffffffffffffffffffffff1661142682610914565b73ffffffffffffffffffffffffffffffffffffffff161461147c576040517f08c379a000000000000000000000000000000000000000000000000000000000815260040161147390612b50565b60405180910390fd5b6004600082815260200190815260200160002060006101000a81549073ffffffffffffffffffffffffffffffffffffffff02191690556001600360008573ffffffffffffffffffffffffffffffffffffffff1673ffffffffffffffffffffffffffffffffffffffff168152602001908152602001600020600082825403925050819055506001600360008473ffffffffffffffffffffffffffffffffffffffff1673ffffffffffffffffffffffffffffffffffffffff16815260200190815260200160002060008282540192505081905550816002600083815260200190815260200160002060006101000a81548173ffffffffffffffffffffffffffffffffffffffff021916908373ffffffffffffffffffffffffffffffffffffffff160217905550808273ffffffffffffffffffffffffffffffffffffffff168473ffffffffffffffffffffffffffffffffffffffff167fddf252ad1be2c89b69c2b068fc378daa952ba7f163c4a11628f55a4df523b3ef60405160405180910390a46116088383836001611b1b565b505050565b60006002600083815260200190815260200160002060009054906101000a900473ffffffffffffffffffffffffffffffffffffffff169050919050565b6001816000016000828254019250508190555050565b600081600001549050919050565b611688828260405180602001604052806000815250611b21565b5050565b6116946111bd565b73ffffffffffffffffffffffffffffffffffffffff166116b2610c4a565b73ffffffffffffffffffffffffffffffffffffffff1614611708576040517f08c379a00000000000000000000000000000000000000000000000000000000081526004016116ff90612c70565b60405180910390fd5b565b6000600660009054906101000a900473ffffffffffffffffffffffffffffffffffffffff16905081600660006101000a81548173ffffffffffffffffffffffffffffffffffffffff021916908373ffffffffffffffffffffffffffffffffffffffff1602179055508173ffffffffffffffffffffffffffffffffffffffff168173ffffffffffffffffffffffffffffffffffffffff167f8be0079c531659141344cd1fd0a4f28419497f9722a3daafe3b4186f6b6457e060405160405180910390a35050565b8173ffffffffffffffffffffffffffffffffffffffff168373ffffffffffffffffffffffffffffffffffffffff16141561183f576040517f08c379a000000000000000000000000000000000000000000000000000000000815260040161183690612bd0565b60405180910390fd5b80600560008573ffffffffffffffffffffffffffffffffffffffff1673ffffffffffffffffffffffffffffffffffffffff16815260200190815260200160002060008473ffffffffffffffffffffffffffffffffffffffff1673ffffffffffffffffffffffffffffffffffffffff16815260200190815260200160002060006101000a81548160ff0219169083151502179055508173ffffffffffffffffffffffffffffffffffffffff168373ffffffffffffffffffffffffffffffffffffffff167f17307eab39ab6107e8899845ad3d59bd9653f200f220920489ca2b5937696c31836040516119309190612a59565b60405180910390a3505050565b611948848484611313565b61195484848484611b7c565b611993576040517f08c379a000000000000000000000000000000000000000000000000000000000815260040161198a90612b10565b60405180910390fd5b50505050565b606060405180602001604052806000815250905090565b6060600060016119bf84611d13565b01905060008167ffffffffffffffff811115611a04577f4e487b7100000000000000000000000000000000000000000000000000000000600052604160045260246000fd5b6040519080825280601f01601f191660200182016040528015611a365781602001600182028036833780820191505090505b509050600082602001820190505b600115611ac9578080600190039150507f3031323334353637383961626364656600000000000000000000000000000000600a86061a8153600a8581611ab3577f4e487b7100000000000000000000000000000000000000000000000000000000600052601260045260246000fd5b0494506000851415611ac457611ac9565b611a44565b819350505050919050565b60008073ffffffffffffffffffffffffffffffffffffffff16611af68361160d565b73ffffffffffffffffffffffffffffffffffffffff1614159050919050565b50505050565b50505050565b611b2b8383611f4a565b611b386000848484611b7c565b611b77576040517f08c379a0000000000000000000000000000000000000000000000000000000008152600401611b6e90612b10565b60405180910390fd5b505050565b6000611b9d8473ffffffffffffffffffffffffffffffffffffffff16612168565b15611d06578373ffffffffffffffffffffffffffffffffffffffff1663150b7a02611bc66111bd565b8786866040518563ffffffff1660e01b8152600401611be894939291906129eb565b602060405180830381600087803b158015611c0257600080fd5b505af1925050508015611c3357506040513d601f19601f82011682018060405250810190611c309190612537565b60015b611cb6573d8060008114611c63576040519150601f19603f3d011682016040523d82523d6000602084013e611c68565b606091505b50600081511415611cae576040517f08c379a0000000000000000000000000000000000000000000000000000000008152600401611ca590612b10565b60405180910390fd5b805181602001fd5b63150b7a0260e01b7bffffffffffffffffffffffffffffffffffffffffffffffffffffffff1916817bffffffffffffffffffffffffffffffffffffffffffffffffffffffff191614915050611d0b565b600190505b949350505050565b600080600090507a184f03e93ff9f4daa797ed6e38ed64bf6a1f0100000000000000008310611d97577a184f03e93ff9f4daa797ed6e38ed64bf6a1f0100000000000000008381611d8d577f4e487b7100000000000000000000000000000000000000000000000000000000600052601260045260246000fd5b0492506040810190505b6d04ee2d6d415b85acef81000000008310611dfa576d04ee2d6d415b85acef81000000008381611df0577f4e487b7100000000000000000000000000000000000000000000000000000000600052601260045260246000fd5b0492506020810190505b662386f26fc100008310611e4f57662386f26fc100008381611e45577f4e487b7100000000000000000000000000000000000000000000000000000000600052601260045260246000fd5b0492506010810190505b6305f5e1008310611e9e576305f5e1008381611e94577f4e487b7100000000000000000000000000000000000000000000000000000000600052601260045260246000fd5b0492506008810190505b6127108310611ee9576127108381611edf577f4e487b7100000000000000000000000000000000000000000000000000000000600052601260045260246000fd5b0492506004810190505b60648310611f325760648381611f28577f4e487b7100000000000000000000000000000000000000000000000000000000600052601260045260246000fd5b0492506002810190505b600a8310611f41576001810190505b80915050919050565b600073ffffffffffffffffffffffffffffffffffffffff168273ffffffffffffffffffffffffffffffffffffffff161415611fba576040517f08c379a0000000000000000000000000000000000000000000000000000000008152600401611fb190612c30565b60405180910390fd5b611fc381611ad4565b15612003576040517f08c379a0000000000000000000000000000000000000000000000000000000008152600401611ffa90612b70565b60405180910390fd5b612011600083836001611b15565b61201a81611ad4565b1561205a576040517f08c379a000000000000000000000000000000000000000000000000000000000815260040161205190612b70565b60405180910390fd5b6001600360008473ffffffffffffffffffffffffffffffffffffffff1673ffffffffffffffffffffffffffffffffffffffff16815260200190815260200160002060008282540192505081905550816002600083815260200190815260200160002060006101000a81548173ffffffffffffffffffffffffffffffffffffffff021916908373ffffffffffffffffffffffffffffffffffffffff160217905550808273ffffffffffffffffffffffffffffffffffffffff16600073ffffffffffffffffffffffffffffffffffffffff167fddf252ad1be2c89b69c2b068fc378daa952ba7f163c4a11628f55a4df523b3ef60405160405180910390a4612164600083836001611b1b565b5050565b6000808273ffffffffffffffffffffffffffffffffffffffff163b119050919050565b82805461219790612f3a565b90600052602060002090601f0160209004810192826121b95760008555612200565b82601f106121d257805160ff1916838001178555612200565b82800160010185558215612200579182015b828111156121ff5782518255916020019190600101906121e4565b5b50905061220d9190612211565b5090565b5b8082111561222a576000816000905550600101612212565b5090565b600061224161223c84612d50565b612d2b565b90508281526020810184848401111561225957600080fd5b612264848285612ef8565b509392505050565b600061227f61227a84612d81565b612d2b565b90508281526020810184848401111561229757600080fd5b6122a2848285612ef8565b509392505050565b6000813590506122b981613424565b92915050565b6000813590506122ce8161343b565b92915050565b6000813590506122e381613452565b92915050565b6000815190506122f881613452565b92915050565b600082601f83011261230f57600080fd5b813561231f84826020860161222e565b91505092915050565b600082601f83011261233957600080fd5b813561234984826020860161226c565b91505092915050565b60008135905061236181613469565b92915050565b60006020828403121561237957600080fd5b6000612387848285016122aa565b91505092915050565b600080604083850312156123a357600080fd5b60006123b1858286016122aa565b92505060206123c2858286016122aa565b9150509250929050565b6000806000606084860312156123e157600080fd5b60006123ef868287016122aa565b9350506020612400868287016122aa565b925050604061241186828701612352565b9150509250925092565b6000806000806080858703121561243157600080fd5b600061243f878288016122aa565b9450506020612450878288016122aa565b935050604061246187828801612352565b925050606085013567ffffffffffffffff81111561247e57600080fd5b61248a878288016122fe565b91505092959194509250565b600080604083850312156124a957600080fd5b60006124b7858286016122aa565b92505060206124c8858286016122bf565b9150509250929050565b600080604083850312156124e557600080fd5b60006124f3858286016122aa565b925050602061250485828601612352565b9150509250929050565b60006020828403121561252057600080fd5b600061252e848285016122d4565b91505092915050565b60006020828403121561254957600080fd5b6000612557848285016122e9565b91505092915050565b60006020828403121561257257600080fd5b600061258084828501612352565b91505092915050565b6000806000806080858703121561259f57600080fd5b60006125ad87828801612352565b945050602085013567ffffffffffffffff8111156125ca57600080fd5b6125d687828801612328565b93505060406125e787828801612352565b92505060606125f887828801612352565b91505092959194509250565b6000612610838361298e565b60208301905092915050565b61262581612e84565b82525050565b600061263682612dc2565b6126408185612df0565b935061264b83612db2565b8060005b8381101561267c5781516126638882612604565b975061266e83612de3565b92505060018101905061264f565b5085935050505092915050565b61269281612e96565b82525050565b60006126a382612dcd565b6126ad8185612e01565b93506126bd818560208601612f07565b6126c68161302a565b840191505092915050565b60006126dc82612dd8565b6126e68185612e12565b93506126f6818560208601612f07565b6126ff8161302a565b840191505092915050565b600061271582612dd8565b61271f8185612e23565b935061272f818560208601612f07565b80840191505092915050565b6000612748602d83612e12565b91506127538261303b565b604082019050919050565b600061276b603283612e12565b91506127768261308a565b604082019050919050565b600061278e602683612e12565b9150612799826130d9565b604082019050919050565b60006127b1602583612e12565b91506127bc82613128565b604082019050919050565b60006127d4601c83612e12565b91506127df82613177565b602082019050919050565b60006127f7601783612e12565b9150612802826131a0565b602082019050919050565b600061281a602483612e12565b9150612825826131c9565b604082019050919050565b600061283d601983612e12565b915061284882613218565b602082019050919050565b6000612860601683612e12565b915061286b82613241565b602082019050919050565b6000612883602983612e12565b915061288e8261326a565b604082019050919050565b60006128a6602083612e12565b91506128b1826132b9565b602082019050919050565b60006128c9601883612e12565b91506128d4826132e2565b602082019050919050565b60006128ec602083612e12565b91506128f78261330b565b602082019050919050565b600061290f601883612e12565b915061291a82613334565b602082019050919050565b6000612932602183612e12565b915061293d8261335d565b604082019050919050565b6000612955601683612e12565b9150612960826133ac565b602082019050919050565b6000612978603d83612e12565b9150612983826133d5565b604082019050919050565b61299781612eee565b82525050565b6129a681612eee565b82525050565b60006129b8828561270a565b91506129c4828461270a565b91508190509392505050565b60006020820190506129e5600083018461261c565b92915050565b6000608082019050612a00600083018761261c565b612a0d602083018661261c565b612a1a604083018561299d565b8181036060830152612a2c8184612698565b905095945050505050565b60006020820190508181036000830152612a51818461262b565b905092915050565b6000602082019050612a6e6000830184612689565b92915050565b60006020820190508181036000830152612a8e81846126d1565b905092915050565b600060a0820190508181036000830152612ab081886126d1565b9050612abf602083018761299d565b612acc604083018661299d565b612ad9606083018561299d565b612ae66080830184612689565b9695505050505050565b60006020820190508181036000830152612b098161273b565b9050919050565b60006020820190508181036000830152612b298161275e565b9050919050565b60006020820190508181036000830152612b4981612781565b9050919050565b60006020820190508181036000830152612b69816127a4565b9050919050565b60006020820190508181036000830152612b89816127c7565b9050919050565b60006020820190508181036000830152612ba9816127ea565b9050919050565b60006020820190508181036000830152612bc98161280d565b9050919050565b60006020820190508181036000830152612be981612830565b9050919050565b60006020820190508181036000830152612c0981612853565b9050919050565b60006020820190508181036000830152612c2981612876565b9050919050565b60006020820190508181036000830152612c4981612899565b9050919050565b60006020820190508181036000830152612c69816128bc565b9050919050565b60006020820190508181036000830152612c89816128df565b9050919050565b60006020820190508181036000830152612ca981612902565b9050919050565b60006020820190508181036000830152612cc981612925565b9050919050565b60006020820190508181036000830152612ce981612948565b9050919050565b60006020820190508181036000830152612d098161296b565b9050919050565b6000602082019050612d25600083018461299d565b92915050565b6000612d35612d46565b9050612d418282612f6c565b919050565b6000604051905090565b600067ffffffffffffffff821115612d6b57612d6a612ffb565b5b612d748261302a565b9050602081019050919050565b600067ffffffffffffffff821115612d9c57612d9b612ffb565b5b612da58261302a565b9050602081019050919050565b6000819050602082019050919050565b600081519050919050565b600081519050919050565b600081519050919050565b6000602082019050919050565b600082825260208201905092915050565b600082825260208201905092915050565b600082825260208201905092915050565b600081905092915050565b6000612e3982612eee565b9150612e4483612eee565b9250827fffffffffffffffffffffffffffffffffffffffffffffffffffffffffffffffff03821115612e7957612e78612f9d565b5b828201905092915050565b6000612e8f82612ece565b9050919050565b60008115159050919050565b60007fffffffff0000000000000000000000000000000000000000000000000000000082169050919050565b600073ffffffffffffffffffffffffffffffffffffffff82169050919050565b6000819050919050565b82818337600083830152505050565b60005b83811015612f25578082015181840152602081019050612f0a565b83811115612f34576000848401525b50505050565b60006002820490506001821680612f5257607f821691505b60208210811415612f6657612f65612fcc565b5b50919050565b612f758261302a565b810181811067ffffffffffffffff82111715612f9457612f93612ffb565b5b80604052505050565b7f4e487b7100000000000000000000000000000000000000000000000000000000600052601160045260246000fd5b7f4e487b7100000000000000000000000000000000000000000000000000000000600052602260045260246000fd5b7f4e487b7100000000000000000000000000000000000000000000000000000000600052604160045260246000fd5b6000601f19601f8301169050919050565b7f4552433732313a2063616c6c6572206973206e6f7420746f6b656e206f776e6560008201527f72206f7220617070726f76656400000000000000000000000000000000000000602082015250565b7f4552433732313a207472616e7366657220746f206e6f6e20455243373231526560008201527f63656976657220696d706c656d656e7465720000000000000000000000000000602082015250565b7f4f776e61626c653a206e6577206f776e657220697320746865207a65726f206160008201527f6464726573730000000000000000000000000000000000000000000000000000602082015250565b7f4552433732313a207472616e736665722066726f6d20696e636f72726563742060008201527f6f776e6572000000000000000000000000000000000000000000000000000000602082015250565b7f4552433732313a20746f6b656e20616c7265616479206d696e74656400000000600082015250565b7f496e76616c696420616d6f756e74206f66204574686572000000000000000000600082015250565b7f4552433732313a207472616e7366657220746f20746865207a65726f2061646460008201527f7265737300000000000000000000000000000000000000000000000000000000602082015250565b7f4552433732313a20617070726f766520746f2063616c6c657200000000000000600082015250565b7f436f6e6365727420616c72656164792065786973747300000000000000000000600082015250565b7f4552433732313a2061646472657373207a65726f206973206e6f74206120766160008201527f6c6964206f776e65720000000000000000000000000000000000000000000000602082015250565b7f4552433732313a206d696e7420746f20746865207a65726f2061646472657373600082015250565b7f416c6c207469636b6574732061726520736f6c64206f75740000000000000000600082015250565b7f4f776e61626c653a2063616c6c6572206973206e6f7420746865206f776e6572600082015250565b7f4552433732313a20696e76616c696420746f6b656e2049440000000000000000600082015250565b7f4552433732313a20617070726f76616c20746f2063757272656e74206f776e6560008201527f7200000000000000000000000000000000000000000000000000000000000000602082015250565b7f436f6e6365727420646f6573206e6f7420657869737400000000000000000000600082015250565b7f4552433732313a20617070726f76652063616c6c6572206973206e6f7420746f60008201527f6b656e206f776e6572206f7220617070726f76656420666f7220616c6c000000602082015250565b61342d81612e84565b811461343857600080fd5b50565b61344481612e96565b811461344f57600080fd5b50565b61345b81612ea2565b811461346657600080fd5b50565b61347281612eee565b811461347d57600080fd5b5056fea264697066735822122081205469184432f247344359f227673e7c8b1b65cacdf8659c8734af0c30920864736f6c63430008010033",
  "immutableReferences": {},
  "source": "// SPDX-License-Identifier: UNLICENSED\r\npragma solidity ^0.8.0;\r\n\r\nimport \"@openzeppelin/contracts/token/ERC721/ERC721.sol\";\r\nimport \"@openzeppelin/contracts/utils/Counters.sol\";\r\nimport \"@openzeppelin/contracts/access/Ownable.sol\";\r\n\r\ncontract ConcertTicket is ERC721, Ownable {\r\n    using Counters for Counters.Counter;\r\n    Counters.Counter private _tokenIds;\r\n\r\n    struct Concert {\r\n        string name;\r\n        uint256 price;\r\n        uint256 totalTickets;\r\n        uint256 soldTickets;\r\n        bool isActive;\r\n    }\r\n\r\n    mapping(uint256 => Concert) public concerts;\r\n    mapping(address => uint256[]) public userTickets;\r\n\r\n    constructor() ERC721(\"Concert Ticket\", \"CT\") {}\r\n\r\n    function createConcert(\r\n        uint256 _id,\r\n        string memory _name,\r\n        uint256 _price,\r\n        uint256 _totalTickets\r\n    ) public onlyOwner {\r\n        require(!concerts[_id].isActive, \"Concert already exists\");\r\n        concerts[_id] = Concert({\r\n            name: _name,\r\n            price: _price,\r\n            totalTickets: _totalTickets,\r\n            soldTickets: 0,\r\n            isActive: true\r\n        });\r\n    }\r\n\r\n    function buyTicket(uint256 _id) public payable {\r\n        require(concerts[_id].isActive, \"Concert does not exist\");\r\n        require(concerts[_id].soldTickets < concerts[_id].totalTickets, \"All tickets are sold out\");\r\n        require(msg.value == concerts[_id].price, \"Invalid amount of Ether\");\r\n        _tokenIds.increment();\r\n        uint256 newTicketId = _tokenIds.current();\r\n        _safeMint(msg.sender, newTicketId);\r\n        userTickets[msg.sender].push(newTicketId);\r\n        concerts[_id].soldTickets += 1;\r\n    }\r\n\r\n    function getTickets(address _user) public view returns (uint256[] memory) {\r\n        return userTickets[_user];\r\n    }\r\n}",
  "sourcePath": "C:\\Users\\ruben\\Documents\\ProjetMajeure\\contracts\\Concert.sol",
  "compiler": {
    "name": "solc",
    "version": "0.8.1+commit.df193b15.Emscripten.clang"
  },
  "schemaVersion": "3.4.13",
  "updatedAt": "2023-03-20T16:40:32.883Z",
  "devdoc": {
    "kind": "dev",
    "methods": {
      "approve(address,uint256)": {
        "details": "See {IERC721-approve}."
      },
      "balanceOf(address)": {
        "details": "See {IERC721-balanceOf}."
      },
      "getApproved(uint256)": {
        "details": "See {IERC721-getApproved}."
      },
      "isApprovedForAll(address,address)": {
        "details": "See {IERC721-isApprovedForAll}."
      },
      "name()": {
        "details": "See {IERC721Metadata-name}."
      },
      "owner()": {
        "details": "Returns the address of the current owner."
      },
      "ownerOf(uint256)": {
        "details": "See {IERC721-ownerOf}."
      },
      "renounceOwnership()": {
        "details": "Leaves the contract without owner. It will not be possible to call `onlyOwner` functions anymore. Can only be called by the current owner. NOTE: Renouncing ownership will leave the contract without an owner, thereby removing any functionality that is only available to the owner."
      },
      "safeTransferFrom(address,address,uint256)": {
        "details": "See {IERC721-safeTransferFrom}."
      },
      "safeTransferFrom(address,address,uint256,bytes)": {
        "details": "See {IERC721-safeTransferFrom}."
      },
      "setApprovalForAll(address,bool)": {
        "details": "See {IERC721-setApprovalForAll}."
      },
      "supportsInterface(bytes4)": {
        "details": "See {IERC165-supportsInterface}."
      },
      "symbol()": {
        "details": "See {IERC721Metadata-symbol}."
      },
      "tokenURI(uint256)": {
        "details": "See {IERC721Metadata-tokenURI}."
      },
      "transferFrom(address,address,uint256)": {
        "details": "See {IERC721-transferFrom}."
      },
      "transferOwnership(address)": {
        "details": "Transfers ownership of the contract to a new account (`newOwner`). Can only be called by the current owner."
      }
    },
    "version": 1
  },
  "userdoc": {
    "kind": "user",
    "methods": {},
    "version": 1
  }
}